{"abi":[{"type":"constructor","inputs":[{"name":"_admin","type":"address","internalType":"address"}],"stateMutability":"nonpayable"},{"type":"function","name":"ADMIN_ROLE","inputs":[],"outputs":[{"name":"","type":"bytes32","internalType":"bytes32"}],"stateMutability":"view"},{"type":"function","name":"DEFAULT_ADMIN_ROLE","inputs":[],"outputs":[{"name":"","type":"bytes32","internalType":"bytes32"}],"stateMutability":"view"},{"type":"function","name":"HR_ROLE","inputs":[],"outputs":[{"name":"","type":"bytes32","internalType":"bytes32"}],"stateMutability":"view"},{"type":"function","name":"activateEmployee","inputs":[{"name":"_employee","type":"address","internalType":"address"}],"outputs":[],"stateMutability":"nonpayable"},{"type":"function","name":"activeEmployees","inputs":[],"outputs":[{"name":"","type":"uint256","internalType":"uint256"}],"stateMutability":"view"},{"type":"function","name":"addEmployee","inputs":[{"name":"_employee","type":"address","internalType":"address"},{"name":"_name","type":"string","internalType":"string"},{"name":"_salary","type":"uint256","internalType":"uint256"},{"name":"_role","type":"string","internalType":"string"}],"outputs":[],"stateMutability":"nonpayable"},{"type":"function","name":"deactivateEmployee","inputs":[{"name":"_employee","type":"address","internalType":"address"}],"outputs":[],"stateMutability":"nonpayable"},{"type":"function","name":"employeeAddresses","inputs":[{"name":"","type":"uint256","internalType":"uint256"}],"outputs":[{"name":"","type":"address","internalType":"address"}],"stateMutability":"view"},{"type":"function","name":"employees","inputs":[{"name":"","type":"address","internalType":"address"}],"outputs":[{"name":"employer","type":"address","internalType":"address"},{"name":"name","type":"string","internalType":"string"},{"name":"salary","type":"uint256","internalType":"uint256"},{"name":"isActive","type":"bool","internalType":"bool"},{"name":"startDate","type":"uint256","internalType":"uint256"},{"name":"role","type":"string","internalType":"string"}],"stateMutability":"view"},{"type":"function","name":"getActiveEmployees","inputs":[],"outputs":[{"name":"","type":"address[]","internalType":"address[]"}],"stateMutability":"view"},{"type":"function","name":"getEmployee","inputs":[{"name":"_employee","type":"address","internalType":"address"}],"outputs":[{"name":"name","type":"string","internalType":"string"},{"name":"salary","type":"uint256","internalType":"uint256"},{"name":"isActive","type":"bool","internalType":"bool"}],"stateMutability":"view"},{"type":"function","name":"getEmployerEmployees","inputs":[{"name":"_employer","type":"address","internalType":"address"}],"outputs":[{"name":"","type":"address[]","internalType":"address[]"}],"stateMutability":"view"},{"type":"function","name":"getEmployerMonthlyCost","inputs":[{"name":"_employer","type":"address","internalType":"address"}],"outputs":[{"name":"","type":"uint256","internalType":"uint256"}],"stateMutability":"view"},{"type":"function","name":"getRoleAdmin","inputs":[{"name":"role","type":"bytes32","internalType":"bytes32"}],"outputs":[{"name":"","type":"bytes32","internalType":"bytes32"}],"stateMutability":"view"},{"type":"function","name":"getTotalMonthlyCost","inputs":[],"outputs":[{"name":"","type":"uint256","internalType":"uint256"}],"stateMutability":"view"},{"type":"function","name":"grantAdminRole","inputs":[{"name":"_newAdmin","type":"address","internalType":"address"}],"outputs":[],"stateMutability":"nonpayable"},{"type":"function","name":"grantRole","inputs":[{"name":"role","type":"bytes32","internalType":"bytes32"},{"name":"account","type":"address","internalType":"address"}],"outputs":[],"stateMutability":"nonpayable"},{"type":"function","name":"hasRole","inputs":[{"name":"role","type":"bytes32","internalType":"bytes32"},{"name":"account","type":"address","internalType":"address"}],"outputs":[{"name":"","type":"bool","internalType":"bool"}],"stateMutability":"view"},{"type":"function","name":"isActiveEmployee","inputs":[{"name":"_employee","type":"address","internalType":"address"}],"outputs":[{"name":"","type":"bool","internalType":"bool"}],"stateMutability":"view"},{"type":"function","name":"isEmployer","inputs":[{"name":"","type":"address","internalType":"address"}],"outputs":[{"name":"","type":"bool","internalType":"bool"}],"stateMutability":"view"},{"type":"function","name":"registerAsEmployer","inputs":[],"outputs":[],"stateMutability":"nonpayable"},{"type":"function","name":"renounceRole","inputs":[{"name":"role","type":"bytes32","internalType":"bytes32"},{"name":"callerConfirmation","type":"address","internalType":"address"}],"outputs":[],"stateMutability":"nonpayable"},{"type":"function","name":"revokeRole","inputs":[{"name":"role","type":"bytes32","internalType":"bytes32"},{"name":"account","type":"address","internalType":"address"}],"outputs":[],"stateMutability":"nonpayable"},{"type":"function","name":"supportsInterface","inputs":[{"name":"interfaceId","type":"bytes4","internalType":"bytes4"}],"outputs":[{"name":"","type":"bool","internalType":"bool"}],"stateMutability":"view"},{"type":"function","name":"totalEmployees","inputs":[],"outputs":[{"name":"","type":"uint256","internalType":"uint256"}],"stateMutability":"view"},{"type":"function","name":"totalEmployers","inputs":[],"outputs":[{"name":"","type":"uint256","internalType":"uint256"}],"stateMutability":"view"},{"type":"function","name":"updateEmployee","inputs":[{"name":"_employee","type":"address","internalType":"address"},{"name":"_name","type":"string","internalType":"string"},{"name":"_salary","type":"uint256","internalType":"uint256"},{"name":"_role","type":"string","internalType":"string"}],"outputs":[],"stateMutability":"nonpayable"},{"type":"event","name":"EmployeeActivated","inputs":[{"name":"employee","type":"address","indexed":true,"internalType":"address"}],"anonymous":false},{"type":"event","name":"EmployeeAdded","inputs":[{"name":"employee","type":"address","indexed":true,"internalType":"address"},{"name":"employer","type":"address","indexed":true,"internalType":"address"},{"name":"name","type":"string","indexed":false,"internalType":"string"},{"name":"salary","type":"uint256","indexed":false,"internalType":"uint256"}],"anonymous":false},{"type":"event","name":"EmployeeDeactivated","inputs":[{"name":"employee","type":"address","indexed":true,"internalType":"address"}],"anonymous":false},{"type":"event","name":"EmployeeUpdated","inputs":[{"name":"employee","type":"address","indexed":true,"internalType":"address"},{"name":"name","type":"string","indexed":false,"internalType":"string"},{"name":"salary","type":"uint256","indexed":false,"internalType":"uint256"}],"anonymous":false},{"type":"event","name":"EmployerRegistered","inputs":[{"name":"employer","type":"address","indexed":true,"internalType":"address"}],"anonymous":false},{"type":"event","name":"RoleAdminChanged","inputs":[{"name":"role","type":"bytes32","indexed":true,"internalType":"bytes32"},{"name":"previousAdminRole","type":"bytes32","indexed":true,"internalType":"bytes32"},{"name":"newAdminRole","type":"bytes32","indexed":true,"internalType":"bytes32"}],"anonymous":false},{"type":"event","name":"RoleGranted","inputs":[{"name":"role","type":"bytes32","indexed":true,"internalType":"bytes32"},{"name":"account","type":"address","indexed":true,"internalType":"address"},{"name":"sender","type":"address","indexed":true,"internalType":"address"}],"anonymous":false},{"type":"event","name":"RoleRevoked","inputs":[{"name":"role","type":"bytes32","indexed":true,"internalType":"bytes32"},{"name":"account","type":"address","indexed":true,"internalType":"address"},{"name":"sender","type":"address","indexed":true,"internalType":"address"}],"anonymous":false},{"type":"error","name":"AccessControlBadConfirmation","inputs":[]},{"type":"error","name":"AccessControlUnauthorizedAccount","inputs":[{"name":"account","type":"address","internalType":"address"},{"name":"neededRole","type":"bytes32","internalType":"bytes32"}]},{"type":"error","name":"InvalidEmployeeAddress","inputs":[]},{"type":"error","name":"NameCannotBeEmpty","inputs":[]}],"bytecode":{"object":"0x608060405234801561000f575f5ffd5b5060405161393438038061393483398181016040528101906100319190610269565b6100435f5f1b826100ac60201b60201c565b506100747fa49807205ce4d355092ef5a8a18f56e8913cf4a201fbe287825b095693c21775826100ac60201b60201c565b506100a57ffd70517941c75212b0f9013e45c47a37d6d983c5304288c7af285f2ea40cbba7826100ac60201b60201c565b5050610294565b5f6100bd83836101a160201b60201c565b6101975760015f5f8581526020019081526020015f205f015f8473ffffffffffffffffffffffffffffffffffffffff1673ffffffffffffffffffffffffffffffffffffffff1681526020019081526020015f205f6101000a81548160ff02191690831515021790555061013461020460201b60201c565b73ffffffffffffffffffffffffffffffffffffffff168273ffffffffffffffffffffffffffffffffffffffff16847f2f8788117e7eff1d82e926ec794901d17c78024a50270940304540a733656f0d60405160405180910390a46001905061019b565b5f90505b92915050565b5f5f5f8481526020019081526020015f205f015f8373ffffffffffffffffffffffffffffffffffffffff1673ffffffffffffffffffffffffffffffffffffffff1681526020019081526020015f205f9054906101000a900460ff16905092915050565b5f33905090565b5f5ffd5b5f73ffffffffffffffffffffffffffffffffffffffff82169050919050565b5f6102388261020f565b9050919050565b6102488161022e565b8114610252575f5ffd5b50565b5f815190506102638161023f565b92915050565b5f6020828403121561027e5761027d61020b565b5b5f61028b84828501610255565b91505092915050565b613693806102a15f395ff3fe608060405234801561000f575f5ffd5b50600436106101a7575f3560e01c806357a3ffdc116100f7578063a217fddf11610095578063c9ac5d1f1161006f578063c9ac5d1f146104cd578063d0678947146104fd578063d547741f14610532578063f3c6a1981461054e576101a7565b8063a217fddf14610463578063c10868c814610481578063c634b78e146104b1576101a7565b806375b238fc116100d157806375b238fc146103c95780637a930d2f146103e757806391d1485414610403578063a086ce1514610433576101a7565b806357a3ffdc146103615780636a663e181461037d5780637521720b14610399576101a7565b80632f2ff15d11610164578063377d6e381161013e578063377d6e38146102d7578063417d6c99146102f557806347e23df91461032557806352b9b97314610343576101a7565b80632f2ff15d1461026d57806332648e091461028957806336568abe146102bb576101a7565b806301ffc9a7146101ab578063028a38c5146101db578063111b5670146101f75780631906b4ce146102015780631b7562471461021f578063248a9ca31461023d575b5f5ffd5b6101c560048036038101906101c091906127a8565b61056c565b6040516101d291906127ed565b60405180910390f35b6101f560048036038101906101f091906128f4565b6105e5565b005b6101ff610a69565b005b610209610bcf565b60405161021691906129a6565b60405180910390f35b610227610bd5565b60405161023491906129a6565b60405180910390f35b610257600480360381019061025291906129f2565b610bdb565b6040516102649190612a2c565b60405180910390f35b61028760048036038101906102829190612a45565b610bf7565b005b6102a3600480360381019061029e9190612a83565b610c19565b6040516102b293929190612b1e565b60405180910390f35b6102d560048036038101906102d09190612a45565b610e27565b005b6102df610ea2565b6040516102ec91906129a6565b60405180910390f35b61030f600480360381019061030a9190612a83565b610fe5565b60405161031c91906127ed565b60405180910390f35b61032d611002565b60405161033a9190612c11565b60405180910390f35b61034b6111a3565b60405161035891906129a6565b60405180910390f35b61037b60048036038101906103769190612a83565b6111a9565b005b61039760048036038101906103929190612a83565b611463565b005b6103b360048036038101906103ae9190612c31565b61171c565b6040516103c09190612c6b565b60405180910390f35b6103d1611757565b6040516103de9190612a2c565b60405180910390f35b61040160048036038101906103fc91906128f4565b61177b565b005b61041d60048036038101906104189190612a45565b611b46565b60405161042a91906127ed565b60405180910390f35b61044d60048036038101906104489190612a83565b611ba9565b60405161045a91906127ed565b60405180910390f35b61046b611bfe565b6040516104789190612a2c565b60405180910390f35b61049b60048036038101906104969190612a83565b611c04565b6040516104a891906129a6565b60405180910390f35b6104cb60048036038101906104c69190612a83565b611e19565b005b6104e760048036038101906104e29190612a83565b611eed565b6040516104f49190612c11565b60405180910390f35b61051760048036038101906105129190612a83565b6122ef565b60405161052996959493929190612c84565b60405180910390f35b61054c60048036038101906105479190612a45565b61245e565b005b610556612480565b6040516105639190612a2c565b60405180910390f35b5f7f7965db0b000000000000000000000000000000000000000000000000000000007bffffffffffffffffffffffffffffffffffffffffffffffffffffffff1916827bffffffffffffffffffffffffffffffffffffffffffffffffffffffff191614806105de57506105dd826124a4565b5b9050919050565b7ffd70517941c75212b0f9013e45c47a37d6d983c5304288c7af285f2ea40cbba761060f8161250d565b5f73ffffffffffffffffffffffffffffffffffffffff168773ffffffffffffffffffffffffffffffffffffffff1603610674576040517f8b5a916800000000000000000000000000000000000000000000000000000000815260040160405180910390fd5b5f8686905010156106b1576040517fcf48253200000000000000000000000000000000000000000000000000000000815260040160405180910390fd5b5f86869050116106f6576040517f08c379a00000000000000000000000000000000000000000000000000000000081526004016106ed90612d3b565b60405180910390fd5b5f8411610738576040517f08c379a000000000000000000000000000000000000000000000000000000000815260040161072f90612da3565b60405180910390fd5b5f60015f8973ffffffffffffffffffffffffffffffffffffffff1673ffffffffffffffffffffffffffffffffffffffff1681526020019081526020015f2060040154146107ba576040517f08c379a00000000000000000000000000000000000000000000000000000000081526004016107b190612e0b565b60405180910390fd5b6040518060c001604052803373ffffffffffffffffffffffffffffffffffffffff16815260200187878080601f0160208091040260200160405190810160405280939291908181526020018383808284375f81840152601f19601f82011690508083019250505050505050815260200185815260200160011515815260200142815260200184848080601f0160208091040260200160405190810160405280939291908181526020018383808284375f81840152601f19601f8201169050808301925050505050505081525060015f8973ffffffffffffffffffffffffffffffffffffffff1673ffffffffffffffffffffffffffffffffffffffff1681526020019081526020015f205f820151815f015f6101000a81548173ffffffffffffffffffffffffffffffffffffffff021916908373ffffffffffffffffffffffffffffffffffffffff160217905550602082015181600101908161091c9190613053565b50604082015181600201556060820151816003015f6101000a81548160ff0219169083151502179055506080820151816004015560a08201518160050190816109659190613053565b50905050600287908060018154018082558091505060019003905f5260205f20015f9091909190916101000a81548173ffffffffffffffffffffffffffffffffffffffff021916908373ffffffffffffffffffffffffffffffffffffffff16021790555060045f8154809291906109db9061314f565b919050555060055f8154809291906109f29061314f565b91905055503373ffffffffffffffffffffffffffffffffffffffff168773ffffffffffffffffffffffffffffffffffffffff167ff7e98994721ab63471c5136bbb7cccb834bd472075a36dde6a338d308674793d888888604051610a58939291906131d0565b60405180910390a350505050505050565b60035f3373ffffffffffffffffffffffffffffffffffffffff1673ffffffffffffffffffffffffffffffffffffffff1681526020019081526020015f205f9054906101000a900460ff1615610af3576040517f08c379a0000000000000000000000000000000000000000000000000000000008152600401610aea9061324a565b60405180910390fd5b600160035f3373ffffffffffffffffffffffffffffffffffffffff1673ffffffffffffffffffffffffffffffffffffffff1681526020019081526020015f205f6101000a81548160ff021916908315150217905550610b727ffd70517941c75212b0f9013e45c47a37d6d983c5304288c7af285f2ea40cbba733612521565b5060065f815480929190610b859061314f565b91905055503373ffffffffffffffffffffffffffffffffffffffff167f320f0bf1a83ce6d92e80948ac3800b41c7ca41667fc5e5ce639b73129dff3bdb60405160405180910390a2565b60065481565b60055481565b5f5f5f8381526020019081526020015f20600101549050919050565b610c0082610bdb565b610c098161250d565b610c138383612521565b50505050565b60605f5f5f60015f8673ffffffffffffffffffffffffffffffffffffffff1673ffffffffffffffffffffffffffffffffffffffff1681526020019081526020015f206040518060c00160405290815f82015f9054906101000a900473ffffffffffffffffffffffffffffffffffffffff1673ffffffffffffffffffffffffffffffffffffffff1673ffffffffffffffffffffffffffffffffffffffff168152602001600182018054610cca90612e83565b80601f0160208091040260200160405190810160405280929190818152602001828054610cf690612e83565b8015610d415780601f10610d1857610100808354040283529160200191610d41565b820191905f5260205f20905b815481529060010190602001808311610d2457829003601f168201915b5050505050815260200160028201548152602001600382015f9054906101000a900460ff1615151515815260200160048201548152602001600582018054610d8890612e83565b80601f0160208091040260200160405190810160405280929190818152602001828054610db490612e83565b8015610dff5780601f10610dd657610100808354040283529160200191610dff565b820191905f5260205f20905b815481529060010190602001808311610de257829003601f168201915b5050505050815250509050806020015181604001518260600151935093509350509193909250565b610e2f61260a565b73ffffffffffffffffffffffffffffffffffffffff168173ffffffffffffffffffffffffffffffffffffffff1614610e93576040517f6697b23200000000000000000000000000000000000000000000000000000000815260040160405180910390fd5b610e9d8282612611565b505050565b5f5f5f90505f5f90505b600280549050811015610fdd5760015f60028381548110610ed057610ecf613268565b5b905f5260205f20015f9054906101000a900473ffffffffffffffffffffffffffffffffffffffff1673ffffffffffffffffffffffffffffffffffffffff1673ffffffffffffffffffffffffffffffffffffffff1681526020019081526020015f206003015f9054906101000a900460ff1615610fd05760015f60028381548110610f5d57610f5c613268565b5b905f5260205f20015f9054906101000a900473ffffffffffffffffffffffffffffffffffffffff1673ffffffffffffffffffffffffffffffffffffffff1673ffffffffffffffffffffffffffffffffffffffff1681526020019081526020015f206002015482610fcd9190613295565b91505b8080600101915050610eac565b508091505090565b6003602052805f5260405f205f915054906101000a900460ff1681565b60605f60055467ffffffffffffffff81111561102157611020612e29565b5b60405190808252806020026020018201604052801561104f5781602001602082028036833780820191505090505b5090505f5f90505f5f90505b60028054905081101561119a5760015f6002838154811061107f5761107e613268565b5b905f5260205f20015f9054906101000a900473ffffffffffffffffffffffffffffffffffffffff1673ffffffffffffffffffffffffffffffffffffffff1673ffffffffffffffffffffffffffffffffffffffff1681526020019081526020015f206003015f9054906101000a900460ff161561118d576002818154811061110957611108613268565b5b905f5260205f20015f9054906101000a900473ffffffffffffffffffffffffffffffffffffffff1683838151811061114457611143613268565b5b602002602001019073ffffffffffffffffffffffffffffffffffffffff16908173ffffffffffffffffffffffffffffffffffffffff168152505081806111899061314f565b9250505b808060010191505061105b565b50819250505090565b60045481565b7ffd70517941c75212b0f9013e45c47a37d6d983c5304288c7af285f2ea40cbba76111d38161250d565b5f60015f8473ffffffffffffffffffffffffffffffffffffffff1673ffffffffffffffffffffffffffffffffffffffff1681526020019081526020015f206004015403611255576040517f08c379a000000000000000000000000000000000000000000000000000000000815260040161124c90613312565b60405180910390fd5b3373ffffffffffffffffffffffffffffffffffffffff1660015f8473ffffffffffffffffffffffffffffffffffffffff1673ffffffffffffffffffffffffffffffffffffffff1681526020019081526020015f205f015f9054906101000a900473ffffffffffffffffffffffffffffffffffffffff1673ffffffffffffffffffffffffffffffffffffffff1614611321576040517f08c379a00000000000000000000000000000000000000000000000000000000081526004016113189061337a565b60405180910390fd5b60015f8373ffffffffffffffffffffffffffffffffffffffff1673ffffffffffffffffffffffffffffffffffffffff1681526020019081526020015f206003015f9054906101000a900460ff16156113ae576040517f08c379a00000000000000000000000000000000000000000000000000000000081526004016113a5906133e2565b60405180910390fd5b6001805f8473ffffffffffffffffffffffffffffffffffffffff1673ffffffffffffffffffffffffffffffffffffffff1681526020019081526020015f206003015f6101000a81548160ff02191690831515021790555060055f8154809291906114179061314f565b91905055508173ffffffffffffffffffffffffffffffffffffffff167f4e3c87f233dd8939e20fb5bf2710b7fff85e2d4dbab07c34c761f2c0723aca0f60405160405180910390a25050565b7ffd70517941c75212b0f9013e45c47a37d6d983c5304288c7af285f2ea40cbba761148d8161250d565b5f60015f8473ffffffffffffffffffffffffffffffffffffffff1673ffffffffffffffffffffffffffffffffffffffff1681526020019081526020015f20600401540361150f576040517f08c379a000000000000000000000000000000000000000000000000000000000815260040161150690613312565b60405180910390fd5b3373ffffffffffffffffffffffffffffffffffffffff1660015f8473ffffffffffffffffffffffffffffffffffffffff1673ffffffffffffffffffffffffffffffffffffffff1681526020019081526020015f205f015f9054906101000a900473ffffffffffffffffffffffffffffffffffffffff1673ffffffffffffffffffffffffffffffffffffffff16146115db576040517f08c379a00000000000000000000000000000000000000000000000000000000081526004016115d29061337a565b60405180910390fd5b60015f8373ffffffffffffffffffffffffffffffffffffffff1673ffffffffffffffffffffffffffffffffffffffff1681526020019081526020015f206003015f9054906101000a900460ff16611667576040517f08c379a000000000000000000000000000000000000000000000000000000000815260040161165e9061344a565b60405180910390fd5b5f60015f8473ffffffffffffffffffffffffffffffffffffffff1673ffffffffffffffffffffffffffffffffffffffff1681526020019081526020015f206003015f6101000a81548160ff02191690831515021790555060055f8154809291906116d090613468565b91905055508173ffffffffffffffffffffffffffffffffffffffff167fc752135f7e9dd8cd89164e7513feed89162e931129bc1c99a0d92d989e93757d60405160405180910390a25050565b6002818154811061172b575f80fd5b905f5260205f20015f915054906101000a900473ffffffffffffffffffffffffffffffffffffffff1681565b7fa49807205ce4d355092ef5a8a18f56e8913cf4a201fbe287825b095693c2177581565b7ffd70517941c75212b0f9013e45c47a37d6d983c5304288c7af285f2ea40cbba76117a58161250d565b5f60015f8973ffffffffffffffffffffffffffffffffffffffff1673ffffffffffffffffffffffffffffffffffffffff1681526020019081526020015f206004015403611827576040517f08c379a000000000000000000000000000000000000000000000000000000000815260040161181e90613312565b60405180910390fd5b3373ffffffffffffffffffffffffffffffffffffffff1660015f8973ffffffffffffffffffffffffffffffffffffffff1673ffffffffffffffffffffffffffffffffffffffff1681526020019081526020015f205f015f9054906101000a900473ffffffffffffffffffffffffffffffffffffffff1673ffffffffffffffffffffffffffffffffffffffff16146118f3576040517f08c379a00000000000000000000000000000000000000000000000000000000081526004016118ea9061337a565b60405180910390fd5b60015f8873ffffffffffffffffffffffffffffffffffffffff1673ffffffffffffffffffffffffffffffffffffffff1681526020019081526020015f206003015f9054906101000a900460ff1661197f576040517f08c379a0000000000000000000000000000000000000000000000000000000008152600401611976906134d9565b60405180910390fd5b5f86869050116119c4576040517f08c379a00000000000000000000000000000000000000000000000000000000081526004016119bb90612d3b565b60405180910390fd5b5f8411611a06576040517f08c379a00000000000000000000000000000000000000000000000000000000081526004016119fd90612da3565b60405180910390fd5b858560015f8a73ffffffffffffffffffffffffffffffffffffffff1673ffffffffffffffffffffffffffffffffffffffff1681526020019081526020015f206001019182611a55929190613501565b508360015f8973ffffffffffffffffffffffffffffffffffffffff1673ffffffffffffffffffffffffffffffffffffffff1681526020019081526020015f2060020181905550828260015f8a73ffffffffffffffffffffffffffffffffffffffff1673ffffffffffffffffffffffffffffffffffffffff1681526020019081526020015f206005019182611aea929190613501565b508673ffffffffffffffffffffffffffffffffffffffff167f810f937cb0d9e92a2d7a721c65c3f2082cbb714126505d6bafbb58d9a0c92e6b878787604051611b35939291906131d0565b60405180910390a250505050505050565b5f5f5f8481526020019081526020015f205f015f8373ffffffffffffffffffffffffffffffffffffffff1673ffffffffffffffffffffffffffffffffffffffff1681526020019081526020015f205f9054906101000a900460ff16905092915050565b5f60015f8373ffffffffffffffffffffffffffffffffffffffff1673ffffffffffffffffffffffffffffffffffffffff1681526020019081526020015f206003015f9054906101000a900460ff169050919050565b5f5f1b81565b5f5f5f90505f5f90505b600280549050811015611e0f578373ffffffffffffffffffffffffffffffffffffffff1660015f60028481548110611c4957611c48613268565b5b905f5260205f20015f9054906101000a900473ffffffffffffffffffffffffffffffffffffffff1673ffffffffffffffffffffffffffffffffffffffff1673ffffffffffffffffffffffffffffffffffffffff1681526020019081526020015f205f015f9054906101000a900473ffffffffffffffffffffffffffffffffffffffff1673ffffffffffffffffffffffffffffffffffffffff16148015611d73575060015f60028381548110611d0157611d00613268565b5b905f5260205f20015f9054906101000a900473ffffffffffffffffffffffffffffffffffffffff1673ffffffffffffffffffffffffffffffffffffffff1673ffffffffffffffffffffffffffffffffffffffff1681526020019081526020015f206003015f9054906101000a900460ff165b15611e025760015f60028381548110611d8f57611d8e613268565b5b905f5260205f20015f9054906101000a900473ffffffffffffffffffffffffffffffffffffffff1673ffffffffffffffffffffffffffffffffffffffff1673ffffffffffffffffffffffffffffffffffffffff1681526020019081526020015f206002015482611dff9190613295565b91505b8080600101915050611c0e565b5080915050919050565b5f5f1b611e258161250d565b5f73ffffffffffffffffffffffffffffffffffffffff168273ffffffffffffffffffffffffffffffffffffffff1603611e93576040517f08c379a0000000000000000000000000000000000000000000000000000000008152600401611e8a90613618565b60405180910390fd5b611ebd7fa49807205ce4d355092ef5a8a18f56e8913cf4a201fbe287825b095693c2177583612521565b50611ee87ffd70517941c75212b0f9013e45c47a37d6d983c5304288c7af285f2ea40cbba783612521565b505050565b60605f5f90505f5f90505b60028054905081101561207e578373ffffffffffffffffffffffffffffffffffffffff1660015f60028481548110611f3357611f32613268565b5b905f5260205f20015f9054906101000a900473ffffffffffffffffffffffffffffffffffffffff1673ffffffffffffffffffffffffffffffffffffffff1673ffffffffffffffffffffffffffffffffffffffff1681526020019081526020015f205f015f9054906101000a900473ffffffffffffffffffffffffffffffffffffffff1673ffffffffffffffffffffffffffffffffffffffff1614801561205d575060015f60028381548110611feb57611fea613268565b5b905f5260205f20015f9054906101000a900473ffffffffffffffffffffffffffffffffffffffff1673ffffffffffffffffffffffffffffffffffffffff1673ffffffffffffffffffffffffffffffffffffffff1681526020019081526020015f206003015f9054906101000a900460ff165b1561207157818061206d9061314f565b9250505b8080600101915050611ef8565b505f8167ffffffffffffffff81111561209a57612099612e29565b5b6040519080825280602002602001820160405280156120c85781602001602082028036833780820191505090505b5090505f5f90505f5f90505b6002805490508110156122e3578573ffffffffffffffffffffffffffffffffffffffff1660015f6002848154811061210f5761210e613268565b5b905f5260205f20015f9054906101000a900473ffffffffffffffffffffffffffffffffffffffff1673ffffffffffffffffffffffffffffffffffffffff1673ffffffffffffffffffffffffffffffffffffffff1681526020019081526020015f205f015f9054906101000a900473ffffffffffffffffffffffffffffffffffffffff1673ffffffffffffffffffffffffffffffffffffffff16148015612239575060015f600283815481106121c7576121c6613268565b5b905f5260205f20015f9054906101000a900473ffffffffffffffffffffffffffffffffffffffff1673ffffffffffffffffffffffffffffffffffffffff1673ffffffffffffffffffffffffffffffffffffffff1681526020019081526020015f206003015f9054906101000a900460ff165b156122d6576002818154811061225257612251613268565b5b905f5260205f20015f9054906101000a900473ffffffffffffffffffffffffffffffffffffffff1683838151811061228d5761228c613268565b5b602002602001019073ffffffffffffffffffffffffffffffffffffffff16908173ffffffffffffffffffffffffffffffffffffffff168152505081806122d29061314f565b9250505b80806001019150506120d4565b50819350505050919050565b6001602052805f5260405f205f91509050805f015f9054906101000a900473ffffffffffffffffffffffffffffffffffffffff169080600101805461233390612e83565b80601f016020809104026020016040519081016040528092919081815260200182805461235f90612e83565b80156123aa5780601f10612381576101008083540402835291602001916123aa565b820191905f5260205f20905b81548152906001019060200180831161238d57829003601f168201915b505050505090806002015490806003015f9054906101000a900460ff16908060040154908060050180546123dd90612e83565b80601f016020809104026020016040519081016040528092919081815260200182805461240990612e83565b80156124545780601f1061242b57610100808354040283529160200191612454565b820191905f5260205f20905b81548152906001019060200180831161243757829003601f168201915b5050505050905086565b61246782610bdb565b6124708161250d565b61247a8383612611565b50505050565b7ffd70517941c75212b0f9013e45c47a37d6d983c5304288c7af285f2ea40cbba781565b5f7f01ffc9a7000000000000000000000000000000000000000000000000000000007bffffffffffffffffffffffffffffffffffffffffffffffffffffffff1916827bffffffffffffffffffffffffffffffffffffffffffffffffffffffff1916149050919050565b61251e8161251961260a565b6126fa565b50565b5f61252c8383611b46565b6126005760015f5f8581526020019081526020015f205f015f8473ffffffffffffffffffffffffffffffffffffffff1673ffffffffffffffffffffffffffffffffffffffff1681526020019081526020015f205f6101000a81548160ff02191690831515021790555061259d61260a565b73ffffffffffffffffffffffffffffffffffffffff168273ffffffffffffffffffffffffffffffffffffffff16847f2f8788117e7eff1d82e926ec794901d17c78024a50270940304540a733656f0d60405160405180910390a460019050612604565b5f90505b92915050565b5f33905090565b5f61261c8383611b46565b156126f0575f5f5f8581526020019081526020015f205f015f8473ffffffffffffffffffffffffffffffffffffffff1673ffffffffffffffffffffffffffffffffffffffff1681526020019081526020015f205f6101000a81548160ff02191690831515021790555061268d61260a565b73ffffffffffffffffffffffffffffffffffffffff168273ffffffffffffffffffffffffffffffffffffffff16847ff6391f5c32d9c69d2a47ea670b442974b53935d1edc7fd64eb21e047a839171b60405160405180910390a4600190506126f4565b5f90505b92915050565b6127048282611b46565b6127475780826040517fe2517d3f00000000000000000000000000000000000000000000000000000000815260040161273e929190613636565b60405180910390fd5b5050565b5f5ffd5b5f5ffd5b5f7fffffffff0000000000000000000000000000000000000000000000000000000082169050919050565b61278781612753565b8114612791575f5ffd5b50565b5f813590506127a28161277e565b92915050565b5f602082840312156127bd576127bc61274b565b5b5f6127ca84828501612794565b91505092915050565b5f8115159050919050565b6127e7816127d3565b82525050565b5f6020820190506128005f8301846127de565b92915050565b5f73ffffffffffffffffffffffffffffffffffffffff82169050919050565b5f61282f82612806565b9050919050565b61283f81612825565b8114612849575f5ffd5b50565b5f8135905061285a81612836565b92915050565b5f5ffd5b5f5ffd5b5f5ffd5b5f5f83601f84011261288157612880612860565b5b8235905067ffffffffffffffff81111561289e5761289d612864565b5b6020830191508360018202830111156128ba576128b9612868565b5b9250929050565b5f819050919050565b6128d3816128c1565b81146128dd575f5ffd5b50565b5f813590506128ee816128ca565b92915050565b5f5f5f5f5f5f6080878903121561290e5761290d61274b565b5b5f61291b89828a0161284c565b965050602087013567ffffffffffffffff81111561293c5761293b61274f565b5b61294889828a0161286c565b9550955050604061295b89828a016128e0565b935050606087013567ffffffffffffffff81111561297c5761297b61274f565b5b61298889828a0161286c565b92509250509295509295509295565b6129a0816128c1565b82525050565b5f6020820190506129b95f830184612997565b92915050565b5f819050919050565b6129d1816129bf565b81146129db575f5ffd5b50565b5f813590506129ec816129c8565b92915050565b5f60208284031215612a0757612a0661274b565b5b5f612a14848285016129de565b91505092915050565b612a26816129bf565b82525050565b5f602082019050612a3f5f830184612a1d565b92915050565b5f5f60408385031215612a5b57612a5a61274b565b5b5f612a68858286016129de565b9250506020612a798582860161284c565b9150509250929050565b5f60208284031215612a9857612a9761274b565b5b5f612aa58482850161284c565b91505092915050565b5f81519050919050565b5f82825260208201905092915050565b8281835e5f83830152505050565b5f601f19601f8301169050919050565b5f612af082612aae565b612afa8185612ab8565b9350612b0a818560208601612ac8565b612b1381612ad6565b840191505092915050565b5f6060820190508181035f830152612b368186612ae6565b9050612b456020830185612997565b612b5260408301846127de565b949350505050565b5f81519050919050565b5f82825260208201905092915050565b5f819050602082019050919050565b612b8c81612825565b82525050565b5f612b9d8383612b83565b60208301905092915050565b5f602082019050919050565b5f612bbf82612b5a565b612bc98185612b64565b9350612bd483612b74565b805f5b83811015612c04578151612beb8882612b92565b9750612bf683612ba9565b925050600181019050612bd7565b5085935050505092915050565b5f6020820190508181035f830152612c298184612bb5565b905092915050565b5f60208284031215612c4657612c4561274b565b5b5f612c53848285016128e0565b91505092915050565b612c6581612825565b82525050565b5f602082019050612c7e5f830184612c5c565b92915050565b5f60c082019050612c975f830189612c5c565b8181036020830152612ca98188612ae6565b9050612cb86040830187612997565b612cc560608301866127de565b612cd26080830185612997565b81810360a0830152612ce48184612ae6565b9050979650505050505050565b7f4e616d652063616e6e6f7420626520656d7074790000000000000000000000005f82015250565b5f612d25601483612ab8565b9150612d3082612cf1565b602082019050919050565b5f6020820190508181035f830152612d5281612d19565b9050919050565b7f53616c617279206d7573742062652067726561746572207468616e20300000005f82015250565b5f612d8d601d83612ab8565b9150612d9882612d59565b602082019050919050565b5f6020820190508181035f830152612dba81612d81565b9050919050565b7f456d706c6f79656520616c7265616479206578697374730000000000000000005f82015250565b5f612df5601783612ab8565b9150612e0082612dc1565b602082019050919050565b5f6020820190508181035f830152612e2281612de9565b9050919050565b7f4e487b71000000000000000000000000000000000000000000000000000000005f52604160045260245ffd5b7f4e487b71000000000000000000000000000000000000000000000000000000005f52602260045260245ffd5b5f6002820490506001821680612e9a57607f821691505b602082108103612ead57612eac612e56565b5b50919050565b5f819050815f5260205f209050919050565b5f6020601f8301049050919050565b5f82821b905092915050565b5f60088302612f0f7fffffffffffffffffffffffffffffffffffffffffffffffffffffffffffffffff82612ed4565b612f198683612ed4565b95508019841693508086168417925050509392505050565b5f819050919050565b5f612f54612f4f612f4a846128c1565b612f31565b6128c1565b9050919050565b5f819050919050565b612f6d83612f3a565b612f81612f7982612f5b565b848454612ee0565b825550505050565b5f5f905090565b612f98612f89565b612fa3818484612f64565b505050565b5b81811015612fc657612fbb5f82612f90565b600181019050612fa9565b5050565b601f82111561300b57612fdc81612eb3565b612fe584612ec5565b81016020851015612ff4578190505b61300861300085612ec5565b830182612fa8565b50505b505050565b5f82821c905092915050565b5f61302b5f1984600802613010565b1980831691505092915050565b5f613043838361301c565b9150826002028217905092915050565b61305c82612aae565b67ffffffffffffffff81111561307557613074612e29565b5b61307f8254612e83565b61308a828285612fca565b5f60209050601f8311600181146130bb575f84156130a9578287015190505b6130b38582613038565b86555061311a565b601f1984166130c986612eb3565b5f5b828110156130f0578489015182556001820191506020850194506020810190506130cb565b8683101561310d5784890151613109601f89168261301c565b8355505b6001600288020188555050505b505050505050565b7f4e487b71000000000000000000000000000000000000000000000000000000005f52601160045260245ffd5b5f613159826128c1565b91507fffffffffffffffffffffffffffffffffffffffffffffffffffffffffffffffff820361318b5761318a613122565b5b600182019050919050565b828183375f83830152505050565b5f6131af8385612ab8565b93506131bc838584613196565b6131c583612ad6565b840190509392505050565b5f6040820190508181035f8301526131e98185876131a4565b90506131f86020830184612997565b949350505050565b7f416c7265616479207265676973746572656420617320656d706c6f79657200005f82015250565b5f613234601e83612ab8565b915061323f82613200565b602082019050919050565b5f6020820190508181035f83015261326181613228565b9050919050565b7f4e487b71000000000000000000000000000000000000000000000000000000005f52603260045260245ffd5b5f61329f826128c1565b91506132aa836128c1565b92508282019050808211156132c2576132c1613122565b5b92915050565b7f456d706c6f79656520646f6573206e6f742065786973740000000000000000005f82015250565b5f6132fc601783612ab8565b9150613307826132c8565b602082019050919050565b5f6020820190508181035f830152613329816132f0565b9050919050565b7f4e6f7420796f757220656d706c6f7965650000000000000000000000000000005f82015250565b5f613364601183612ab8565b915061336f82613330565b602082019050919050565b5f6020820190508181035f83015261339181613358565b9050919050565b7f456d706c6f79656520616c7265616479206163746976650000000000000000005f82015250565b5f6133cc601783612ab8565b91506133d782613398565b602082019050919050565b5f6020820190508181035f8301526133f9816133c0565b9050919050565b7f456d706c6f796565206e6f7420616374697665000000000000000000000000005f82015250565b5f613434601383612ab8565b915061343f82613400565b602082019050919050565b5f6020820190508181035f83015261346181613428565b9050919050565b5f613472826128c1565b91505f820361348457613483613122565b5b600182039050919050565b7f456d706c6f79656520697320696e6163746976650000000000000000000000005f82015250565b5f6134c3601483612ab8565b91506134ce8261348f565b602082019050919050565b5f6020820190508181035f8301526134f0816134b7565b9050919050565b5f82905092915050565b61350b83836134f7565b67ffffffffffffffff81111561352457613523612e29565b5b61352e8254612e83565b613539828285612fca565b5f601f831160018114613566575f8415613554578287013590505b61355e8582613038565b8655506135c5565b601f19841661357486612eb3565b5f5b8281101561359b57848901358255600182019150602085019450602081019050613576565b868310156135b857848901356135b4601f89168261301c565b8355505b6001600288020188555050505b50505050505050565b7f496e76616c69642061646d696e206164647265737300000000000000000000005f82015250565b5f613602601583612ab8565b915061360d826135ce565b602082019050919050565b5f6020820190508181035f83015261362f816135f6565b9050919050565b5f6040820190506136495f830185612c5c565b6136566020830184612a1d565b939250505056fea264697066735822122004afc4494c9fad39cca9915d1fa8e49f07ce9aaa1e71e4f027710d5d3d8d606564736f6c634300081e0033","linkReferences":{}},"methodIdentifiers":{"ADMIN_ROLE()":"75b238fc","DEFAULT_ADMIN_ROLE()":"a217fddf","HR_ROLE()":"f3c6a198","activateEmployee(address)":"57a3ffdc","activeEmployees()":"1b756247","addEmployee(address,string,uint256,string)":"028a38c5","deactivateEmployee(address)":"6a663e18","employeeAddresses(uint256)":"7521720b","employees(address)":"d0678947","getActiveEmployees()":"47e23df9","getEmployee(address)":"32648e09","getEmployerEmployees(address)":"c9ac5d1f","getEmployerMonthlyCost(address)":"c10868c8","getRoleAdmin(bytes32)":"248a9ca3","getTotalMonthlyCost()":"377d6e38","grantAdminRole(address)":"c634b78e","grantRole(bytes32,address)":"2f2ff15d","hasRole(bytes32,address)":"91d14854","isActiveEmployee(address)":"a086ce15","isEmployer(address)":"417d6c99","registerAsEmployer()":"111b5670","renounceRole(bytes32,address)":"36568abe","revokeRole(bytes32,address)":"d547741f","supportsInterface(bytes4)":"01ffc9a7","totalEmployees()":"52b9b973","totalEmployers()":"1906b4ce","updateEmployee(address,string,uint256,string)":"7a930d2f"},"id":29}