{"abi":[{"type":"constructor","inputs":[{"name":"_usdc","type":"address","internalType":"address"},{"name":"_employeeRegistry","type":"address","internalType":"address"},{"name":"_admin","type":"address","internalType":"address"}],"stateMutability":"nonpayable"},{"type":"function","name":"ADMIN_ROLE","inputs":[],"outputs":[{"name":"","type":"bytes32","internalType":"bytes32"}],"stateMutability":"view"},{"type":"function","name":"DEFAULT_ADMIN_ROLE","inputs":[],"outputs":[{"name":"","type":"bytes32","internalType":"bytes32"}],"stateMutability":"view"},{"type":"function","name":"HR_ROLE","inputs":[],"outputs":[{"name":"","type":"bytes32","internalType":"bytes32"}],"stateMutability":"view"},{"type":"function","name":"PAYROLL_OPERATOR_ROLE","inputs":[],"outputs":[{"name":"","type":"bytes32","internalType":"bytes32"}],"stateMutability":"view"},{"type":"function","name":"currentPayrollId","inputs":[],"outputs":[{"name":"","type":"uint256","internalType":"uint256"}],"stateMutability":"view"},{"type":"function","name":"depositPayroll","inputs":[{"name":"amount","type":"uint256","internalType":"uint256"}],"outputs":[],"stateMutability":"nonpayable"},{"type":"function","name":"emergencyWithdraw","inputs":[{"name":"amount","type":"uint256","internalType":"uint256"}],"outputs":[],"stateMutability":"nonpayable"},{"type":"function","name":"employeeRegistry","inputs":[],"outputs":[{"name":"","type":"address","internalType":"contract IEmployeeRegistry"}],"stateMutability":"view"},{"type":"function","name":"employerBalances","inputs":[{"name":"","type":"address","internalType":"address"}],"outputs":[{"name":"","type":"uint256","internalType":"uint256"}],"stateMutability":"view"},{"type":"function","name":"executePayroll","inputs":[],"outputs":[],"stateMutability":"nonpayable"},{"type":"function","name":"getEmployerBalance","inputs":[{"name":"_employer","type":"address","internalType":"address"}],"outputs":[{"name":"","type":"uint256","internalType":"uint256"}],"stateMutability":"view"},{"type":"function","name":"getMyBalance","inputs":[],"outputs":[{"name":"","type":"uint256","internalType":"uint256"}],"stateMutability":"view"},{"type":"function","name":"getRoleAdmin","inputs":[{"name":"role","type":"bytes32","internalType":"bytes32"}],"outputs":[{"name":"","type":"bytes32","internalType":"bytes32"}],"stateMutability":"view"},{"type":"function","name":"getTotalBalance","inputs":[],"outputs":[{"name":"","type":"uint256","internalType":"uint256"}],"stateMutability":"view"},{"type":"function","name":"grantAdminRole","inputs":[{"name":"_newAdmin","type":"address","internalType":"address"}],"outputs":[],"stateMutability":"nonpayable"},{"type":"function","name":"grantRole","inputs":[{"name":"role","type":"bytes32","internalType":"bytes32"},{"name":"account","type":"address","internalType":"address"}],"outputs":[],"stateMutability":"nonpayable"},{"type":"function","name":"hasRole","inputs":[{"name":"role","type":"bytes32","internalType":"bytes32"},{"name":"account","type":"address","internalType":"address"}],"outputs":[{"name":"","type":"bool","internalType":"bool"}],"stateMutability":"view"},{"type":"function","name":"pause","inputs":[],"outputs":[],"stateMutability":"nonpayable"},{"type":"function","name":"paused","inputs":[],"outputs":[{"name":"","type":"bool","internalType":"bool"}],"stateMutability":"view"},{"type":"function","name":"payrollClaims","inputs":[{"name":"","type":"uint256","internalType":"uint256"},{"name":"","type":"address","internalType":"address"}],"outputs":[{"name":"","type":"bool","internalType":"bool"}],"stateMutability":"view"},{"type":"function","name":"payrollRuns","inputs":[{"name":"","type":"uint256","internalType":"uint256"}],"outputs":[{"name":"id","type":"uint256","internalType":"uint256"},{"name":"employer","type":"address","internalType":"address"},{"name":"timestamp","type":"uint256","internalType":"uint256"},{"name":"totalAmount","type":"uint256","internalType":"uint256"},{"name":"employeeCount","type":"uint256","internalType":"uint256"},{"name":"merkleRoot","type":"bytes32","internalType":"bytes32"},{"name":"isCompleted","type":"bool","internalType":"bool"}],"stateMutability":"view"},{"type":"function","name":"renounceRole","inputs":[{"name":"role","type":"bytes32","internalType":"bytes32"},{"name":"callerConfirmation","type":"address","internalType":"address"}],"outputs":[],"stateMutability":"nonpayable"},{"type":"function","name":"revokeRole","inputs":[{"name":"role","type":"bytes32","internalType":"bytes32"},{"name":"account","type":"address","internalType":"address"}],"outputs":[],"stateMutability":"nonpayable"},{"type":"function","name":"setEmployeeRegistry","inputs":[{"name":"_employeeRegistry","type":"address","internalType":"address"}],"outputs":[],"stateMutability":"nonpayable"},{"type":"function","name":"supportsInterface","inputs":[{"name":"interfaceId","type":"bytes4","internalType":"bytes4"}],"outputs":[{"name":"","type":"bool","internalType":"bool"}],"stateMutability":"view"},{"type":"function","name":"totalPayrollRuns","inputs":[],"outputs":[{"name":"","type":"uint256","internalType":"uint256"}],"stateMutability":"view"},{"type":"function","name":"unpause","inputs":[],"outputs":[],"stateMutability":"nonpayable"},{"type":"function","name":"usdc","inputs":[],"outputs":[{"name":"","type":"address","internalType":"contract IERC20"}],"stateMutability":"view"},{"type":"function","name":"withdrawEmployerBalance","inputs":[{"name":"amount","type":"uint256","internalType":"uint256"}],"outputs":[],"stateMutability":"nonpayable"},{"type":"event","name":"EmergencyWithdraw","inputs":[{"name":"admin","type":"address","indexed":true,"internalType":"address"},{"name":"amount","type":"uint256","indexed":false,"internalType":"uint256"}],"anonymous":false},{"type":"event","name":"EmployerWithdrawn","inputs":[{"name":"employer","type":"address","indexed":true,"internalType":"address"},{"name":"amount","type":"uint256","indexed":false,"internalType":"uint256"}],"anonymous":false},{"type":"event","name":"Paused","inputs":[{"name":"account","type":"address","indexed":false,"internalType":"address"}],"anonymous":false},{"type":"event","name":"PayrollClaimed","inputs":[{"name":"payrollId","type":"uint256","indexed":true,"internalType":"uint256"},{"name":"employee","type":"address","indexed":true,"internalType":"address"},{"name":"amount","type":"uint256","indexed":false,"internalType":"uint256"}],"anonymous":false},{"type":"event","name":"PayrollDeposited","inputs":[{"name":"employer","type":"address","indexed":true,"internalType":"address"},{"name":"amount","type":"uint256","indexed":false,"internalType":"uint256"}],"anonymous":false},{"type":"event","name":"PayrollExecuted","inputs":[{"name":"payrollId","type":"uint256","indexed":true,"internalType":"uint256"},{"name":"employer","type":"address","indexed":true,"internalType":"address"},{"name":"totalAmount","type":"uint256","indexed":false,"internalType":"uint256"},{"name":"employeeCount","type":"uint256","indexed":false,"internalType":"uint256"}],"anonymous":false},{"type":"event","name":"RoleAdminChanged","inputs":[{"name":"role","type":"bytes32","indexed":true,"internalType":"bytes32"},{"name":"previousAdminRole","type":"bytes32","indexed":true,"internalType":"bytes32"},{"name":"newAdminRole","type":"bytes32","indexed":true,"internalType":"bytes32"}],"anonymous":false},{"type":"event","name":"RoleGranted","inputs":[{"name":"role","type":"bytes32","indexed":true,"internalType":"bytes32"},{"name":"account","type":"address","indexed":true,"internalType":"address"},{"name":"sender","type":"address","indexed":true,"internalType":"address"}],"anonymous":false},{"type":"event","name":"RoleRevoked","inputs":[{"name":"role","type":"bytes32","indexed":true,"internalType":"bytes32"},{"name":"account","type":"address","indexed":true,"internalType":"address"},{"name":"sender","type":"address","indexed":true,"internalType":"address"}],"anonymous":false},{"type":"event","name":"Unpaused","inputs":[{"name":"account","type":"address","indexed":false,"internalType":"address"}],"anonymous":false},{"type":"error","name":"AccessControlBadConfirmation","inputs":[]},{"type":"error","name":"AccessControlUnauthorizedAccount","inputs":[{"name":"account","type":"address","internalType":"address"},{"name":"neededRole","type":"bytes32","internalType":"bytes32"}]},{"type":"error","name":"EnforcedPause","inputs":[]},{"type":"error","name":"ExpectedPause","inputs":[]},{"type":"error","name":"InsufficientBalance","inputs":[]},{"type":"error","name":"InvalidEmployee","inputs":[]},{"type":"error","name":"InvalidPayrollId","inputs":[]},{"type":"error","name":"PayrollAlreadyClaimed","inputs":[]},{"type":"error","name":"ReentrancyGuardReentrantCall","inputs":[]}],"bytecode":{"object":"0x60a060405234801561000f575f5ffd5b50604051612f9a380380612f9a83398181016040528101906100319190610366565b600161004f61004461017760201b60201c565b6101a060201b60201c565b5f01819055508273ffffffffffffffffffffffffffffffffffffffff1660808173ffffffffffffffffffffffffffffffffffffffff1681525050816001806101000a81548173ffffffffffffffffffffffffffffffffffffffff021916908373ffffffffffffffffffffffffffffffffffffffff1602179055506100db5f5f1b826101a960201b60201c565b5061010c7fa49807205ce4d355092ef5a8a18f56e8913cf4a201fbe287825b095693c21775826101a960201b60201c565b5061013d7fa00e4d8cd05372905e218ca9dfd779ae23aa2a1e5b48da75f16a3b5e89fa332f826101a960201b60201c565b5061016e7ffd70517941c75212b0f9013e45c47a37d6d983c5304288c7af285f2ea40cbba7826101a960201b60201c565b505050506103b6565b5f7f9b779b17422d0df92223018b32b4d1fa46e071723d6817e2486d003becc55f005f1b905090565b5f819050919050565b5f6101ba838361029e60201b60201c565b6102945760015f5f8581526020019081526020015f205f015f8473ffffffffffffffffffffffffffffffffffffffff1673ffffffffffffffffffffffffffffffffffffffff1681526020019081526020015f205f6101000a81548160ff02191690831515021790555061023161030160201b60201c565b73ffffffffffffffffffffffffffffffffffffffff168273ffffffffffffffffffffffffffffffffffffffff16847f2f8788117e7eff1d82e926ec794901d17c78024a50270940304540a733656f0d60405160405180910390a460019050610298565b5f90505b92915050565b5f5f5f8481526020019081526020015f205f015f8373ffffffffffffffffffffffffffffffffffffffff1673ffffffffffffffffffffffffffffffffffffffff1681526020019081526020015f205f9054906101000a900460ff16905092915050565b5f33905090565b5f5ffd5b5f73ffffffffffffffffffffffffffffffffffffffff82169050919050565b5f6103358261030c565b9050919050565b6103458161032b565b811461034f575f5ffd5b50565b5f815190506103608161033c565b92915050565b5f5f5f6060848603121561037d5761037c610308565b5b5f61038a86828701610352565b935050602061039b86828701610352565b92505060406103ac86828701610352565b9150509250925092565b608051612ba26103f85f395f81816105f101528181610b1a01528181610eff0152818161114b015281816112370152818161131101526116800152612ba25ff3fe608060405234801561000f575f5ffd5b50600436106101cd575f3560e01c80635312ea8e11610102578063973a6b53116100a0578063d547741f1161006f578063d547741f146104e7578063ec00cdbc14610503578063f3c6a19814610533578063fd2a52a114610551576101cd565b8063973a6b531461045b578063a217fddf14610491578063bab73479146104af578063c634b78e146104cb576101cd565b80636ddc9425116100dc5780636ddc9425146103e557806375b238fc146104035780638456cb591461042157806391d148541461042b576101cd565b80635312ea8e1461038f5780635b2d3bf7146103ab5780635c975abb146103c7576101cd565b80632f2909f31161016f57806336568abe1161014957806336568abe1461032d5780633e413bee146103495780633f4ba83a146103675780634c73890914610371576101cd565b80632f2909f3146102c35780632f2ff15d146102f3578063357b750b1461030f576101cd565b80631e588ae6116101ab5780631e588ae61461023d578063248a9ca3146102475780632b61fad9146102775780632e9db8d714610293576101cd565b806301ffc9a7146101d1578063031c8eea1461020157806312b583491461021f575b5f5ffd5b6101eb60048036038101906101e69190611e93565b61056f565b6040516101f89190611ed8565b60405180910390f35b6102096105e8565b6040516102169190611f09565b60405180910390f35b6102276105ee565b6040516102349190611f09565b60405180910390f35b61024561068c565b005b610261600480360381019061025c9190611f55565b610da1565b60405161026e9190611f8f565b60405180910390f35b610291600480360381019061028c9190611fd2565b610dbd565b005b6102ad60048036038101906102a89190612057565b61102d565b6040516102ba9190611f09565b60405180910390f35b6102dd60048036038101906102d89190612057565b611073565b6040516102ea9190611f09565b60405180910390f35b61030d60048036038101906103089190612082565b611088565b005b6103176110aa565b6040516103249190611f8f565b60405180910390f35b61034760048036038101906103429190612082565b6110ce565b005b610351611149565b60405161035e919061211b565b60405180910390f35b61036f61116d565b005b6103796111a2565b6040516103869190611f09565b60405180910390f35b6103a960048036038101906103a49190611fd2565b6111e6565b005b6103c560048036038101906103c09190612057565b61143f565b005b6103cf6114ad565b6040516103dc9190611ed8565b60405180910390f35b6103ed6114c2565b6040516103fa9190612154565b60405180910390f35b61040b6114e6565b6040516104189190611f8f565b60405180910390f35b61042961150a565b005b61044560048036038101906104409190612082565b61153f565b6040516104529190611ed8565b60405180910390f35b61047560048036038101906104709190611fd2565b6115a2565b604051610488979695949392919061217c565b60405180910390f35b61049961160b565b6040516104a69190611f8f565b60405180910390f35b6104c960048036038101906104c49190611fd2565b611611565b005b6104e560048036038101906104e09190612057565b611803565b005b61050160048036038101906104fc9190612082565b611902565b005b61051d600480360381019061051891906121e9565b611924565b60405161052a9190611ed8565b60405180910390f35b61053b61194e565b6040516105489190611f8f565b60405180910390f35b610559611972565b6040516105669190611f09565b60405180910390f35b5f7f7965db0b000000000000000000000000000000000000000000000000000000007bffffffffffffffffffffffffffffffffffffffffffffffffffffffff1916827bffffffffffffffffffffffffffffffffffffffffffffffffffffffff191614806105e157506105e082611978565b5b9050919050565b60065481565b5f7f000000000000000000000000000000000000000000000000000000000000000073ffffffffffffffffffffffffffffffffffffffff166370a08231306040518263ffffffff1660e01b81526004016106489190612227565b602060405180830381865afa158015610663573d5f5f3e3d5ffd5b505050506040513d601f19601f820116820180604052508101906106879190612254565b905090565b7ffd70517941c75212b0f9013e45c47a37d6d983c5304288c7af285f2ea40cbba76106b6816119e1565b6106be6119f5565b6106c6611a36565b5f60018054906101000a900473ffffffffffffffffffffffffffffffffffffffff1673ffffffffffffffffffffffffffffffffffffffff1663c9ac5d1f336040518263ffffffff1660e01b81526004016107209190612227565b5f60405180830381865afa15801561073a573d5f5f3e3d5ffd5b505050506040513d5f823e3d601f19601f8201168201806040525081019061076291906123e3565b90505f5f90505f8251116107ab576040517f08c379a00000000000000000000000000000000000000000000000000000000081526004016107a290612484565b60405180910390fd5b5f5f90505b8251811015610899575f5f60018054906101000a900473ffffffffffffffffffffffffffffffffffffffff1673ffffffffffffffffffffffffffffffffffffffff166332648e0986858151811061080a576108096124a2565b5b60200260200101516040518263ffffffff1660e01b815260040161082e9190612227565b5f60405180830381865afa158015610848573d5f5f3e3d5ffd5b505050506040513d5f823e3d601f19601f8201168201806040525081019061087091906125a9565b9250925050801561088a5781846108879190612642565b93505b505080806001019150506107b0565b508060045f3373ffffffffffffffffffffffffffffffffffffffff1673ffffffffffffffffffffffffffffffffffffffff1681526020019081526020015f2054101561091a576040517f08c379a0000000000000000000000000000000000000000000000000000000008152600401610911906126bf565b60405180910390fd5b60055f81548092919061092c906126dd565b919050555060065f815480929190610943906126dd565b91905055506040518060e0016040528060055481526020013373ffffffffffffffffffffffffffffffffffffffff168152602001428152602001828152602001835181526020015f5f1b81526020015f151581525060025f60055481526020019081526020015f205f820151815f01556020820151816001015f6101000a81548173ffffffffffffffffffffffffffffffffffffffff021916908373ffffffffffffffffffffffffffffffffffffffff16021790555060408201518160020155606082015181600301556080820151816004015560a0820151816005015560c0820151816006015f6101000a81548160ff0219169083151502179055509050505f5f90505b8251811015610cbe575f838281518110610a6557610a646124a2565b5b602002602001015190505f5f60018054906101000a900473ffffffffffffffffffffffffffffffffffffffff1673ffffffffffffffffffffffffffffffffffffffff166332648e09846040518263ffffffff1660e01b8152600401610aca9190612227565b5f60405180830381865afa158015610ae4573d5f5f3e3d5ffd5b505050506040513d5f823e3d601f19601f82011682018060405250810190610b0c91906125a9565b92509250508015610cae575f7f000000000000000000000000000000000000000000000000000000000000000073ffffffffffffffffffffffffffffffffffffffff1663a9059cbb85856040518363ffffffff1660e01b8152600401610b73929190612724565b6020604051808303815f875af1158015610b8f573d5f5f3e3d5ffd5b505050506040513d601f19601f82011682018060405250810190610bb3919061274b565b905080610bf5576040517f08c379a0000000000000000000000000000000000000000000000000000000008152600401610bec906127c0565b60405180910390fd5b600160035f60055481526020019081526020015f205f8673ffffffffffffffffffffffffffffffffffffffff1673ffffffffffffffffffffffffffffffffffffffff1681526020019081526020015f205f6101000a81548160ff0219169083151502179055508373ffffffffffffffffffffffffffffffffffffffff166005547ff047ae97d6e77b909438ee0321b4cfd287bf5633f353d878e3ae78ebff0b8bc385604051610ca49190611f09565b60405180910390a3505b5050508080600101915050610a48565b508060045f3373ffffffffffffffffffffffffffffffffffffffff1673ffffffffffffffffffffffffffffffffffffffff1681526020019081526020015f205f828254610d0b91906127de565b92505081905550600160025f60055481526020019081526020015f206006015f6101000a81548160ff0219169083151502179055503373ffffffffffffffffffffffffffffffffffffffff166005547fb365da638d49559818181a54a79a7b32cf848d6b298420f0b8cd009babc9a76d838551604051610d8c929190612811565b60405180910390a35050610d9e611a58565b50565b5f5f5f8381526020019081526020015f20600101549050919050565b7ffd70517941c75212b0f9013e45c47a37d6d983c5304288c7af285f2ea40cbba7610de7816119e1565b5f8211610e29576040517f08c379a0000000000000000000000000000000000000000000000000000000008152600401610e2090612882565b60405180910390fd5b8160045f3373ffffffffffffffffffffffffffffffffffffffff1673ffffffffffffffffffffffffffffffffffffffff1681526020019081526020015f20541015610ea9576040517f08c379a0000000000000000000000000000000000000000000000000000000008152600401610ea0906128ea565b60405180910390fd5b8160045f3373ffffffffffffffffffffffffffffffffffffffff1673ffffffffffffffffffffffffffffffffffffffff1681526020019081526020015f205f828254610ef591906127de565b925050819055505f7f000000000000000000000000000000000000000000000000000000000000000073ffffffffffffffffffffffffffffffffffffffff1663a9059cbb33856040518363ffffffff1660e01b8152600401610f58929190612724565b6020604051808303815f875af1158015610f74573d5f5f3e3d5ffd5b505050506040513d601f19601f82011682018060405250810190610f98919061274b565b905080610fda576040517f08c379a0000000000000000000000000000000000000000000000000000000008152600401610fd190612952565b60405180910390fd5b3373ffffffffffffffffffffffffffffffffffffffff167f3662c5cad15a8afe48de590d44b7bc24a1270518e8e22597e9c204c66fadce34846040516110209190611f09565b60405180910390a2505050565b5f60045f8373ffffffffffffffffffffffffffffffffffffffff1673ffffffffffffffffffffffffffffffffffffffff1681526020019081526020015f20549050919050565b6004602052805f5260405f205f915090505481565b61109182610da1565b61109a816119e1565b6110a48383611a72565b50505050565b7fa00e4d8cd05372905e218ca9dfd779ae23aa2a1e5b48da75f16a3b5e89fa332f81565b6110d6611b5b565b73ffffffffffffffffffffffffffffffffffffffff168173ffffffffffffffffffffffffffffffffffffffff161461113a576040517f6697b23200000000000000000000000000000000000000000000000000000000815260040160405180910390fd5b6111448282611b62565b505050565b7f000000000000000000000000000000000000000000000000000000000000000081565b7fa49807205ce4d355092ef5a8a18f56e8913cf4a201fbe287825b095693c21775611197816119e1565b61119f611c4b565b50565b5f60045f3373ffffffffffffffffffffffffffffffffffffffff1673ffffffffffffffffffffffffffffffffffffffff1681526020019081526020015f2054905090565b5f5f1b6111f2816119e1565b5f8211611234576040517f08c379a000000000000000000000000000000000000000000000000000000000815260040161122b90612882565b60405180910390fd5b817f000000000000000000000000000000000000000000000000000000000000000073ffffffffffffffffffffffffffffffffffffffff166370a08231306040518263ffffffff1660e01b815260040161128e9190612227565b602060405180830381865afa1580156112a9573d5f5f3e3d5ffd5b505050506040513d601f19601f820116820180604052508101906112cd9190612254565b101561130e576040517f08c379a0000000000000000000000000000000000000000000000000000000008152600401611305906129ba565b60405180910390fd5b5f7f000000000000000000000000000000000000000000000000000000000000000073ffffffffffffffffffffffffffffffffffffffff1663a9059cbb33856040518363ffffffff1660e01b815260040161136a929190612724565b6020604051808303815f875af1158015611386573d5f5f3e3d5ffd5b505050506040513d601f19601f820116820180604052508101906113aa919061274b565b9050806113ec576040517f08c379a00000000000000000000000000000000000000000000000000000000081526004016113e390612a22565b60405180910390fd5b3373ffffffffffffffffffffffffffffffffffffffff167f5fafa99d0643513820be26656b45130b01e1c03062e1266bf36f88cbd3bd9695846040516114329190611f09565b60405180910390a2505050565b7fa49807205ce4d355092ef5a8a18f56e8913cf4a201fbe287825b095693c21775611469816119e1565b816001806101000a81548173ffffffffffffffffffffffffffffffffffffffff021916908373ffffffffffffffffffffffffffffffffffffffff1602179055505050565b5f60015f9054906101000a900460ff16905090565b60018054906101000a900473ffffffffffffffffffffffffffffffffffffffff1681565b7fa49807205ce4d355092ef5a8a18f56e8913cf4a201fbe287825b095693c2177581565b7fa49807205ce4d355092ef5a8a18f56e8913cf4a201fbe287825b095693c21775611534816119e1565b61153c611cac565b50565b5f5f5f8481526020019081526020015f205f015f8373ffffffffffffffffffffffffffffffffffffffff1673ffffffffffffffffffffffffffffffffffffffff1681526020019081526020015f205f9054906101000a900460ff16905092915050565b6002602052805f5260405f205f91509050805f015490806001015f9054906101000a900473ffffffffffffffffffffffffffffffffffffffff1690806002015490806003015490806004015490806005015490806006015f9054906101000a900460ff16905087565b5f5f1b81565b7ffd70517941c75212b0f9013e45c47a37d6d983c5304288c7af285f2ea40cbba761163b816119e1565b5f821161167d576040517f08c379a000000000000000000000000000000000000000000000000000000000815260040161167490612882565b60405180910390fd5b5f7f000000000000000000000000000000000000000000000000000000000000000073ffffffffffffffffffffffffffffffffffffffff166323b872dd3330866040518463ffffffff1660e01b81526004016116db93929190612a40565b6020604051808303815f875af11580156116f7573d5f5f3e3d5ffd5b505050506040513d601f19601f8201168201806040525081019061171b919061274b565b90508061175d576040517f08c379a000000000000000000000000000000000000000000000000000000000815260040161175490612abf565b60405180910390fd5b8260045f3373ffffffffffffffffffffffffffffffffffffffff1673ffffffffffffffffffffffffffffffffffffffff1681526020019081526020015f205f8282546117a99190612642565b925050819055503373ffffffffffffffffffffffffffffffffffffffff167fcfd175f99dff9e5488217ca95faeffabefca23191b9f39585f9b163688594768846040516117f69190611f09565b60405180910390a2505050565b5f5f1b61180f816119e1565b5f73ffffffffffffffffffffffffffffffffffffffff168273ffffffffffffffffffffffffffffffffffffffff160361187d576040517f08c379a000000000000000000000000000000000000000000000000000000000815260040161187490612b27565b60405180910390fd5b6118a77fa49807205ce4d355092ef5a8a18f56e8913cf4a201fbe287825b095693c2177583611a72565b506118d27fa00e4d8cd05372905e218ca9dfd779ae23aa2a1e5b48da75f16a3b5e89fa332f83611a72565b506118fd7ffd70517941c75212b0f9013e45c47a37d6d983c5304288c7af285f2ea40cbba783611a72565b505050565b61190b82610da1565b611914816119e1565b61191e8383611b62565b50505050565b6003602052815f5260405f20602052805f5260405f205f915091509054906101000a900460ff1681565b7ffd70517941c75212b0f9013e45c47a37d6d983c5304288c7af285f2ea40cbba781565b60055481565b5f7f01ffc9a7000000000000000000000000000000000000000000000000000000007bffffffffffffffffffffffffffffffffffffffffffffffffffffffff1916827bffffffffffffffffffffffffffffffffffffffffffffffffffffffff1916149050919050565b6119f2816119ed611b5b565b611d0d565b50565b6119fd6114ad565b15611a34576040517fd93c066500000000000000000000000000000000000000000000000000000000815260040160405180910390fd5b565b611a3e611d5e565b6002611a50611a4b611d9f565b611dc8565b5f0181905550565b6001611a6a611a65611d9f565b611dc8565b5f0181905550565b5f611a7d838361153f565b611b515760015f5f8581526020019081526020015f205f015f8473ffffffffffffffffffffffffffffffffffffffff1673ffffffffffffffffffffffffffffffffffffffff1681526020019081526020015f205f6101000a81548160ff021916908315150217905550611aee611b5b565b73ffffffffffffffffffffffffffffffffffffffff168273ffffffffffffffffffffffffffffffffffffffff16847f2f8788117e7eff1d82e926ec794901d17c78024a50270940304540a733656f0d60405160405180910390a460019050611b55565b5f90505b92915050565b5f33905090565b5f611b6d838361153f565b15611c41575f5f5f8581526020019081526020015f205f015f8473ffffffffffffffffffffffffffffffffffffffff1673ffffffffffffffffffffffffffffffffffffffff1681526020019081526020015f205f6101000a81548160ff021916908315150217905550611bde611b5b565b73ffffffffffffffffffffffffffffffffffffffff168273ffffffffffffffffffffffffffffffffffffffff16847ff6391f5c32d9c69d2a47ea670b442974b53935d1edc7fd64eb21e047a839171b60405160405180910390a460019050611c45565b5f90505b92915050565b611c53611dd1565b5f60015f6101000a81548160ff0219169083151502179055507f5db9ee0a495bf2e6ff9c91a7834c1ba4fdd244a5e8aa4e537bd38aeae4b073aa611c95611b5b565b604051611ca29190612227565b60405180910390a1565b611cb46119f5565b6001805f6101000a81548160ff0219169083151502179055507f62e78cea01bee320cd4e420270b5ea74000d11b0c9f74754ebdbfc544b05a258611cf6611b5b565b604051611d039190612227565b60405180910390a1565b611d17828261153f565b611d5a5780826040517fe2517d3f000000000000000000000000000000000000000000000000000000008152600401611d51929190612b45565b60405180910390fd5b5050565b611d66611e11565b15611d9d576040517f3ee5aeb500000000000000000000000000000000000000000000000000000000815260040160405180910390fd5b565b5f7f9b779b17422d0df92223018b32b4d1fa46e071723d6817e2486d003becc55f005f1b905090565b5f819050919050565b611dd96114ad565b611e0f576040517f8dfc202b00000000000000000000000000000000000000000000000000000000815260040160405180910390fd5b565b5f6002611e24611e1f611d9f565b611dc8565b5f015414905090565b5f604051905090565b5f5ffd5b5f5ffd5b5f7fffffffff0000000000000000000000000000000000000000000000000000000082169050919050565b611e7281611e3e565b8114611e7c575f5ffd5b50565b5f81359050611e8d81611e69565b92915050565b5f60208284031215611ea857611ea7611e36565b5b5f611eb584828501611e7f565b91505092915050565b5f8115159050919050565b611ed281611ebe565b82525050565b5f602082019050611eeb5f830184611ec9565b92915050565b5f819050919050565b611f0381611ef1565b82525050565b5f602082019050611f1c5f830184611efa565b92915050565b5f819050919050565b611f3481611f22565b8114611f3e575f5ffd5b50565b5f81359050611f4f81611f2b565b92915050565b5f60208284031215611f6a57611f69611e36565b5b5f611f7784828501611f41565b91505092915050565b611f8981611f22565b82525050565b5f602082019050611fa25f830184611f80565b92915050565b611fb181611ef1565b8114611fbb575f5ffd5b50565b5f81359050611fcc81611fa8565b92915050565b5f60208284031215611fe757611fe6611e36565b5b5f611ff484828501611fbe565b91505092915050565b5f73ffffffffffffffffffffffffffffffffffffffff82169050919050565b5f61202682611ffd565b9050919050565b6120368161201c565b8114612040575f5ffd5b50565b5f813590506120518161202d565b92915050565b5f6020828403121561206c5761206b611e36565b5b5f61207984828501612043565b91505092915050565b5f5f6040838503121561209857612097611e36565b5b5f6120a585828601611f41565b92505060206120b685828601612043565b9150509250929050565b5f819050919050565b5f6120e36120de6120d984611ffd565b6120c0565b611ffd565b9050919050565b5f6120f4826120c9565b9050919050565b5f612105826120ea565b9050919050565b612115816120fb565b82525050565b5f60208201905061212e5f83018461210c565b92915050565b5f61213e826120ea565b9050919050565b61214e81612134565b82525050565b5f6020820190506121675f830184612145565b92915050565b6121768161201c565b82525050565b5f60e08201905061218f5f83018a611efa565b61219c602083018961216d565b6121a96040830188611efa565b6121b66060830187611efa565b6121c36080830186611efa565b6121d060a0830185611f80565b6121dd60c0830184611ec9565b98975050505050505050565b5f5f604083850312156121ff576121fe611e36565b5b5f61220c85828601611fbe565b925050602061221d85828601612043565b9150509250929050565b5f60208201905061223a5f83018461216d565b92915050565b5f8151905061224e81611fa8565b92915050565b5f6020828403121561226957612268611e36565b5b5f61227684828501612240565b91505092915050565b5f5ffd5b5f601f19601f8301169050919050565b7f4e487b71000000000000000000000000000000000000000000000000000000005f52604160045260245ffd5b6122c982612283565b810181811067ffffffffffffffff821117156122e8576122e7612293565b5b80604052505050565b5f6122fa611e2d565b905061230682826122c0565b919050565b5f67ffffffffffffffff82111561232557612324612293565b5b602082029050602081019050919050565b5f5ffd5b5f815190506123488161202d565b92915050565b5f61236061235b8461230b565b6122f1565b9050808382526020820190506020840283018581111561238357612382612336565b5b835b818110156123ac5780612398888261233a565b845260208401935050602081019050612385565b5050509392505050565b5f82601f8301126123ca576123c961227f565b5b81516123da84826020860161234e565b91505092915050565b5f602082840312156123f8576123f7611e36565b5b5f82015167ffffffffffffffff81111561241557612414611e3a565b5b612421848285016123b6565b91505092915050565b5f82825260208201905092915050565b7f4e6f20656d706c6f7965657320666f756e6420666f7220656d706c6f796572005f82015250565b5f61246e601f8361242a565b91506124798261243a565b602082019050919050565b5f6020820190508181035f83015261249b81612462565b9050919050565b7f4e487b71000000000000000000000000000000000000000000000000000000005f52603260045260245ffd5b5f5ffd5b5f67ffffffffffffffff8211156124ed576124ec612293565b5b6124f682612283565b9050602081019050919050565b8281835e5f83830152505050565b5f61252361251e846124d3565b6122f1565b90508281526020810184848401111561253f5761253e6124cf565b5b61254a848285612503565b509392505050565b5f82601f8301126125665761256561227f565b5b8151612576848260208601612511565b91505092915050565b61258881611ebe565b8114612592575f5ffd5b50565b5f815190506125a38161257f565b92915050565b5f5f5f606084860312156125c0576125bf611e36565b5b5f84015167ffffffffffffffff8111156125dd576125dc611e3a565b5b6125e986828701612552565b93505060206125fa86828701612240565b925050604061260b86828701612595565b9150509250925092565b7f4e487b71000000000000000000000000000000000000000000000000000000005f52601160045260245ffd5b5f61264c82611ef1565b915061265783611ef1565b925082820190508082111561266f5761266e612615565b5b92915050565b7f496e73756666696369656e7420656d706c6f7965722062616c616e63650000005f82015250565b5f6126a9601d8361242a565b91506126b482612675565b602082019050919050565b5f6020820190508181035f8301526126d68161269d565b9050919050565b5f6126e782611ef1565b91507fffffffffffffffffffffffffffffffffffffffffffffffffffffffffffffffff820361271957612718612615565b5b600182019050919050565b5f6040820190506127375f83018561216d565b6127446020830184611efa565b9392505050565b5f602082840312156127605761275f611e36565b5b5f61276d84828501612595565b91505092915050565b7f5061796d656e74206661696c65640000000000000000000000000000000000005f82015250565b5f6127aa600e8361242a565b91506127b582612776565b602082019050919050565b5f6020820190508181035f8301526127d78161279e565b9050919050565b5f6127e882611ef1565b91506127f383611ef1565b925082820390508181111561280b5761280a612615565b5b92915050565b5f6040820190506128245f830185611efa565b6128316020830184611efa565b9392505050565b7f416d6f756e74206d7573742062652067726561746572207468616e20300000005f82015250565b5f61286c601d8361242a565b915061287782612838565b602082019050919050565b5f6020820190508181035f83015261289981612860565b9050919050565b7f496e73756666696369656e742062616c616e63650000000000000000000000005f82015250565b5f6128d460148361242a565b91506128df826128a0565b602082019050919050565b5f6020820190508181035f830152612901816128c8565b9050919050565b7f5769746864726177206661696c656400000000000000000000000000000000005f82015250565b5f61293c600f8361242a565b915061294782612908565b602082019050919050565b5f6020820190508181035f83015261296981612930565b9050919050565b7f496e73756666696369656e7420636f6e74726163742062616c616e63650000005f82015250565b5f6129a4601d8361242a565b91506129af82612970565b602082019050919050565b5f6020820190508181035f8301526129d181612998565b9050919050565b7f456d657267656e6379207769746864726177206661696c6564000000000000005f82015250565b5f612a0c60198361242a565b9150612a17826129d8565b602082019050919050565b5f6020820190508181035f830152612a3981612a00565b9050919050565b5f606082019050612a535f83018661216d565b612a60602083018561216d565b612a6d6040830184611efa565b949350505050565b7f55534443207472616e73666572206661696c65640000000000000000000000005f82015250565b5f612aa960148361242a565b9150612ab482612a75565b602082019050919050565b5f6020820190508181035f830152612ad681612a9d565b9050919050565b7f496e76616c69642061646d696e206164647265737300000000000000000000005f82015250565b5f612b1160158361242a565b9150612b1c82612add565b602082019050919050565b5f6020820190508181035f830152612b3e81612b05565b9050919050565b5f604082019050612b585f83018561216d565b612b656020830184611f80565b939250505056fea2646970667358221220712e2386b842d4b6623efa7b9aa1efb8a873ff7c1779aea46071b7cc150ff1d564736f6c634300081e0033","linkReferences":{}},"methodIdentifiers":{"ADMIN_ROLE()":"75b238fc","DEFAULT_ADMIN_ROLE()":"a217fddf","HR_ROLE()":"f3c6a198","PAYROLL_OPERATOR_ROLE()":"357b750b","currentPayrollId()":"fd2a52a1","depositPayroll(uint256)":"bab73479","emergencyWithdraw(uint256)":"5312ea8e","employeeRegistry()":"6ddc9425","employerBalances(address)":"2f2909f3","executePayroll()":"1e588ae6","getEmployerBalance(address)":"2e9db8d7","getMyBalance()":"4c738909","getRoleAdmin(bytes32)":"248a9ca3","getTotalBalance()":"12b58349","grantAdminRole(address)":"c634b78e","grantRole(bytes32,address)":"2f2ff15d","hasRole(bytes32,address)":"91d14854","pause()":"8456cb59","paused()":"5c975abb","payrollClaims(uint256,address)":"ec00cdbc","payrollRuns(uint256)":"973a6b53","renounceRole(bytes32,address)":"36568abe","revokeRole(bytes32,address)":"d547741f","setEmployeeRegistry(address)":"5b2d3bf7","supportsInterface(bytes4)":"01ffc9a7","totalPayrollRuns()":"031c8eea","unpause()":"3f4ba83a","usdc()":"3e413bee","withdrawEmployerBalance(uint256)":"2b61fad9"},"id":31}